{
  "contractName": "SimpleStorage",
  "abi": [
    {
      "inputs": [
        {
          "internalType": "string",
          "name": "value",
          "type": "string"
        }
      ],
      "payable": false,
      "stateMutability": "nonpayable",
      "type": "constructor"
    },
    {
      "anonymous": false,
      "inputs": [
        {
          "indexed": true,
          "internalType": "address",
          "name": "author",
          "type": "address"
        },
        {
          "indexed": false,
          "internalType": "string",
          "name": "oldValue",
          "type": "string"
        },
        {
          "indexed": false,
          "internalType": "string",
          "name": "newValue",
          "type": "string"
        }
      ],
      "name": "ValueChanged",
      "type": "event"
    },
    {
      "constant": true,
      "inputs": [],
      "name": "getValue",
      "outputs": [
        {
          "internalType": "string",
          "name": "",
          "type": "string"
        }
      ],
      "payable": false,
      "stateMutability": "view",
      "type": "function"
    },
    {
      "constant": false,
      "inputs": [
        {
          "internalType": "string",
          "name": "value",
          "type": "string"
        }
      ],
      "name": "setValue",
      "outputs": [],
      "payable": false,
      "stateMutability": "nonpayable",
      "type": "function"
    }
  ],
  "bytecode": "0x608060405234801561001057600080fd5b5060405161074a38038061074a8339818101604052602081101561003357600080fd5b810190808051604051939291908464010000000082111561005357600080fd5b8382019150602082018581111561006957600080fd5b825186600182028301116401000000008211171561008657600080fd5b8083526020830192505050908051906020019080838360005b838110156100ba57808201518184015260208101905061009f565b50505050905090810190601f1680156100e75780820380516001836020036101000a031916815260200191505b506040525050503373ffffffffffffffffffffffffffffffffffffffff167fe826f71647b8486f2bae59832124c70792fba044036720a54ec8dacdd5df4fcb6000836040518080602001806020018381038352858181546001816001161561010002031660029004815260200191508054600181600116156101000203166002900480156101b65780601f1061018b576101008083540402835291602001916101b6565b820191906000526020600020905b81548152906001019060200180831161019957829003601f168201915b5050838103825284818151815260200191508051906020019080838360005b838110156101f05780820151818401526020810190506101d5565b50505050905090810190601f16801561021d5780820380516001836020036101000a031916815260200191505b5094505050505060405180910390a28060009080519060200190610242929190610249565b50506102ee565b828054600181600116156101000203166002900490600052602060002090601f016020900481019282601f1061028a57805160ff19168380011785556102b8565b828001600101855582156102b8579182015b828111156102b757825182559160200191906001019061029c565b5b5090506102c591906102c9565b5090565b6102eb91905b808211156102e75760008160009055506001016102cf565b5090565b90565b61044d806102fd6000396000f3fe608060405234801561001057600080fd5b50600436106100365760003560e01c8063209652551461003b57806393a09352146100be575b600080fd5b610043610179565b6040518080602001828103825283818151815260200191508051906020019080838360005b83811015610083578082015181840152602081019050610068565b50505050905090810190601f1680156100b05780820380516001836020036101000a031916815260200191505b509250505060405180910390f35b610177600480360360208110156100d457600080fd5b81019080803590602001906401000000008111156100f157600080fd5b82018360208201111561010357600080fd5b8035906020019184600183028401116401000000008311171561012557600080fd5b91908080601f016020809104026020016040519081016040528093929190818152602001838380828437600081840152601f19601f82011690508083019250505050505050919291929050505061021b565b005b606060008054600181600116156101000203166002900480601f0160208091040260200160405190810160405280929190818152602001828054600181600116156101000203166002900480156102115780601f106101e657610100808354040283529160200191610211565b820191906000526020600020905b8154815290600101906020018083116101f457829003601f168201915b5050505050905090565b3373ffffffffffffffffffffffffffffffffffffffff167fe826f71647b8486f2bae59832124c70792fba044036720a54ec8dacdd5df4fcb6000836040518080602001806020018381038352858181546001816001161561010002031660029004815260200191508054600181600116156101000203166002900480156102e35780601f106102b8576101008083540402835291602001916102e3565b820191906000526020600020905b8154815290600101906020018083116102c657829003601f168201915b5050838103825284818151815260200191508051906020019080838360005b8381101561031d578082015181840152602081019050610302565b50505050905090810190601f16801561034a5780820380516001836020036101000a031916815260200191505b5094505050505060405180910390a2806000908051906020019061036f929190610373565b5050565b828054600181600116156101000203166002900490600052602060002090601f016020900481019282601f106103b457805160ff19168380011785556103e2565b828001600101855582156103e2579182015b828111156103e15782518255916020019190600101906103c6565b5b5090506103ef91906103f3565b5090565b61041591905b808211156104115760008160009055506001016103f9565b5090565b9056fea265627a7a723158209a9af79623c1ebc1fb1e1663ec97bfb71d9eacf22c0cd420d3cf1f20abc87aae64736f6c63430005100032",
  "source": "pragma solidity ^0.5.16;\n\ncontract SimpleStorage {\n\n    event ValueChanged(address indexed author, string oldValue, string newValue);\n\n    string _value;\n\n    constructor(string memory value) public {\n        emit ValueChanged(msg.sender, _value, value);\n        _value = value;\n    }\n\n    function getValue() view public returns (string memory) {\n        return _value;\n    }\n\n    function setValue(string memory value) public {\n        emit ValueChanged(msg.sender, _value, value);\n        _value = value;\n    }\n}\n",
  "sourcePath": "/Users/xzavier/code/js/sendtokenone/contracts/SimpleStorage.sol",
  "compiler": {
    "name": "solc",
    "version": "0.5.16+commit.9c3226ce.Emscripten.clang"
  },
  "schemaVersion": "3.4.4",
  "updatedAt": "2021-12-30T04:20:30.657Z",
  "devdoc": {
    "methods": {}
  },
  "userdoc": {
    "methods": {}
  }
}